{
  "abi": [
    {
      "type": "function",
      "name": "getLandDetails",
      "inputs": [
        {
          "name": "landId",
          "type": "uint256",
          "internalType": "uint256"
        }
      ],
      "outputs": [
        {
          "name": "",
          "type": "tuple",
          "internalType": "struct LandLedger.Land",
          "components": [
            {
              "name": "id",
              "type": "uint256",
              "internalType": "uint256"
            },
            {
              "name": "location",
              "type": "string",
              "internalType": "string"
            },
            {
              "name": "ownerName",
              "type": "string",
              "internalType": "string"
            },
            {
              "name": "ownerAddress",
              "type": "address",
              "internalType": "address"
            },
            {
              "name": "documentHash",
              "type": "string",
              "internalType": "string"
            },
            {
              "name": "exists",
              "type": "bool",
              "internalType": "bool"
            }
          ]
        }
      ],
      "stateMutability": "view"
    },
    {
      "type": "function",
      "name": "getOwnerLands",
      "inputs": [
        {
          "name": "owner",
          "type": "address",
          "internalType": "address"
        }
      ],
      "outputs": [
        {
          "name": "",
          "type": "uint256[]",
          "internalType": "uint256[]"
        }
      ],
      "stateMutability": "view"
    },
    {
      "type": "function",
      "name": "landCount",
      "inputs": [],
      "outputs": [
        {
          "name": "",
          "type": "uint256",
          "internalType": "uint256"
        }
      ],
      "stateMutability": "view"
    },
    {
      "type": "function",
      "name": "lands",
      "inputs": [
        {
          "name": "",
          "type": "uint256",
          "internalType": "uint256"
        }
      ],
      "outputs": [
        {
          "name": "id",
          "type": "uint256",
          "internalType": "uint256"
        },
        {
          "name": "location",
          "type": "string",
          "internalType": "string"
        },
        {
          "name": "ownerName",
          "type": "string",
          "internalType": "string"
        },
        {
          "name": "ownerAddress",
          "type": "address",
          "internalType": "address"
        },
        {
          "name": "documentHash",
          "type": "string",
          "internalType": "string"
        },
        {
          "name": "exists",
          "type": "bool",
          "internalType": "bool"
        }
      ],
      "stateMutability": "view"
    },
    {
      "type": "function",
      "name": "ownerLands",
      "inputs": [
        {
          "name": "",
          "type": "address",
          "internalType": "address"
        },
        {
          "name": "",
          "type": "uint256",
          "internalType": "uint256"
        }
      ],
      "outputs": [
        {
          "name": "",
          "type": "uint256",
          "internalType": "uint256"
        }
      ],
      "stateMutability": "view"
    },
    {
      "type": "function",
      "name": "registerLand",
      "inputs": [
        {
          "name": "_location",
          "type": "string",
          "internalType": "string"
        },
        {
          "name": "_ownerName",
          "type": "string",
          "internalType": "string"
        },
        {
          "name": "_documentHash",
          "type": "string",
          "internalType": "string"
        }
      ],
      "outputs": [],
      "stateMutability": "nonpayable"
    },
    {
      "type": "function",
      "name": "transferOwnership",
      "inputs": [
        {
          "name": "landId",
          "type": "uint256",
          "internalType": "uint256"
        },
        {
          "name": "newOwner",
          "type": "address",
          "internalType": "address"
        },
        {
          "name": "newOwnerName",
          "type": "string",
          "internalType": "string"
        }
      ],
      "outputs": [],
      "stateMutability": "nonpayable"
    },
    {
      "type": "event",
      "name": "LandRegistered",
      "inputs": [
        {
          "name": "landId",
          "type": "uint256",
          "indexed": true,
          "internalType": "uint256"
        },
        {
          "name": "location",
          "type": "string",
          "indexed": false,
          "internalType": "string"
        },
        {
          "name": "ownerName",
          "type": "string",
          "indexed": false,
          "internalType": "string"
        },
        {
          "name": "ownerAddress",
          "type": "address",
          "indexed": true,
          "internalType": "address"
        },
        {
          "name": "documentHash",
          "type": "string",
          "indexed": false,
          "internalType": "string"
        }
      ],
      "anonymous": false
    },
    {
      "type": "event",
      "name": "OwnershipTransferred",
      "inputs": [
        {
          "name": "landId",
          "type": "uint256",
          "indexed": true,
          "internalType": "uint256"
        },
        {
          "name": "oldOwner",
          "type": "address",
          "indexed": true,
          "internalType": "address"
        },
        {
          "name": "newOwner",
          "type": "address",
          "indexed": true,
          "internalType": "address"
        }
      ],
      "anonymous": false
    },
    {
      "type": "error",
      "name": "LandLedger__LandDoesNotExist",
      "inputs": []
    },
    {
      "type": "error",
      "name": "LandLedger__NotOwner",
      "inputs": []
    }
  ],
  "bytecode": {
    "object": "0x6080604052348015600e575f5ffd5b5061170d8061001c5f395ff3fe608060405234801561000f575f5ffd5b506004361061007b575f3560e01c8063d0dea6e211610059578063d0dea6e2146100e7578063d7bce65814610117578063e261f1e514610135578063fe0cb7dc1461016a5761007b565b8063716256411461007f578063b829c12a1461009b578063bf5172d7146100b7575b5f5ffd5b61009960048036038101906100949190610e06565b61019a565b005b6100b560048036038101906100b09190610e72565b6103a7565b005b6100d160048036038101906100cc9190610f16565b610587565b6040516100de9190610ff8565b60405180910390f35b61010160048036038101906100fc9190611018565b61061a565b60405161010e9190611065565b60405180910390f35b61011f610645565b60405161012c9190611065565b60405180910390f35b61014f600480360381019061014a919061107e565b61064b565b60405161016196959493929190611132565b60405180910390f35b610184600480360381019061017f919061107e565b61083f565b60405161019191906112a0565b60405180910390f35b825f5f8281526020019081526020015f206003015f9054906101000a900473ffffffffffffffffffffffffffffffffffffffff1673ffffffffffffffffffffffffffffffffffffffff163373ffffffffffffffffffffffffffffffffffffffff1614610232576040517f086d2ac800000000000000000000000000000000000000000000000000000000815260040160405180910390fd5b5f5f5f8681526020019081526020015f206003015f9054906101000a900473ffffffffffffffffffffffffffffffffffffffff169050835f5f8781526020019081526020015f206003015f6101000a81548173ffffffffffffffffffffffffffffffffffffffff021916908373ffffffffffffffffffffffffffffffffffffffff160217905550825f5f8781526020019081526020015f2060020190816102d991906114bd565b506102e48186610ae7565b60015f8573ffffffffffffffffffffffffffffffffffffffff1673ffffffffffffffffffffffffffffffffffffffff1681526020019081526020015f2085908060018154018082558091505060019003905f5260205f20015f90919091909150558373ffffffffffffffffffffffffffffffffffffffff168173ffffffffffffffffffffffffffffffffffffffff16867f16b85f49bf01212961345d3016c9a531894accf62eb7680f2045d79185cc0ec060405160405180910390a45050505050565b60025f8154809291906103b9906115b9565b91905055506040518060c0016040528060025481526020018481526020018381526020013373ffffffffffffffffffffffffffffffffffffffff168152602001828152602001600115158152505f5f60025481526020019081526020015f205f820151815f0155602082015181600101908161043591906114bd565b50604082015181600201908161044b91906114bd565b506060820151816003015f6101000a81548173ffffffffffffffffffffffffffffffffffffffff021916908373ffffffffffffffffffffffffffffffffffffffff16021790555060808201518160040190816104a791906114bd565b5060a0820151816005015f6101000a81548160ff02191690831515021790555090505060015f3373ffffffffffffffffffffffffffffffffffffffff1673ffffffffffffffffffffffffffffffffffffffff1681526020019081526020015f20600254908060018154018082558091505060019003905f5260205f20015f90919091909150553373ffffffffffffffffffffffffffffffffffffffff166002547fc6bf5d7f0d54f75729257ee62a22c359fd86dd2a8461d9ae25d2d4b337116bd385858560405161057a93929190611600565b60405180910390a3505050565b606060015f8373ffffffffffffffffffffffffffffffffffffffff1673ffffffffffffffffffffffffffffffffffffffff1681526020019081526020015f2080548060200260200160405190810160405280929190818152602001828054801561060e57602002820191905f5260205f20905b8154815260200190600101908083116105fa575b50505050509050919050565b6001602052815f5260405f208181548110610633575f80fd5b905f5260205f20015f91509150505481565b60025481565b5f602052805f5260405f205f91509050805f01549080600101805461066f906112ed565b80601f016020809104026020016040519081016040528092919081815260200182805461069b906112ed565b80156106e65780601f106106bd576101008083540402835291602001916106e6565b820191905f5260205f20905b8154815290600101906020018083116106c957829003601f168201915b5050505050908060020180546106fb906112ed565b80601f0160208091040260200160405190810160405280929190818152602001828054610727906112ed565b80156107725780601f1061074957610100808354040283529160200191610772565b820191905f5260205f20905b81548152906001019060200180831161075557829003601f168201915b505050505090806003015f9054906101000a900473ffffffffffffffffffffffffffffffffffffffff16908060040180546107ac906112ed565b80601f01602080910402602001604051908101604052809291908181526020018280546107d8906112ed565b80156108235780601f106107fa57610100808354040283529160200191610823565b820191905f5260205f20905b81548152906001019060200180831161080657829003601f168201915b505050505090806005015f9054906101000a900460ff16905086565b610847610be1565b5f5f8381526020019081526020015f206005015f9054906101000a900460ff1661089d576040517f61647e6400000000000000000000000000000000000000000000000000000000815260040160405180910390fd5b5f5f8381526020019081526020015f206040518060c00160405290815f82015481526020016001820180546108d1906112ed565b80601f01602080910402602001604051908101604052809291908181526020018280546108fd906112ed565b80156109485780601f1061091f57610100808354040283529160200191610948565b820191905f5260205f20905b81548152906001019060200180831161092b57829003601f168201915b50505050508152602001600282018054610961906112ed565b80601f016020809104026020016040519081016040528092919081815260200182805461098d906112ed565b80156109d85780601f106109af576101008083540402835291602001916109d8565b820191905f5260205f20905b8154815290600101906020018083116109bb57829003601f168201915b50505050508152602001600382015f9054906101000a900473ffffffffffffffffffffffffffffffffffffffff1673ffffffffffffffffffffffffffffffffffffffff1673ffffffffffffffffffffffffffffffffffffffff168152602001600482018054610a46906112ed565b80601f0160208091040260200160405190810160405280929190818152602001828054610a72906112ed565b8015610abd5780601f10610a9457610100808354040283529160200191610abd565b820191905f5260205f20905b815481529060010190602001808311610aa057829003601f168201915b50505050508152602001600582015f9054906101000a900460ff1615151515815250509050919050565b5f60015f8473ffffffffffffffffffffffffffffffffffffffff1673ffffffffffffffffffffffffffffffffffffffff1681526020019081526020015f2090505f5f90505b8180549050811015610bdb5782828281548110610b4c57610b4b61164a565b5b905f5260205f20015403610bce578160018380549050610b6c9190611677565b81548110610b7d57610b7c61164a565b5b905f5260205f200154828281548110610b9957610b9861164a565b5b905f5260205f20018190555081805480610bb657610bb56116aa565b5b600190038181905f5260205f20015f90559055610bdb565b8080600101915050610b2c565b50505050565b6040518060c001604052805f815260200160608152602001606081526020015f73ffffffffffffffffffffffffffffffffffffffff168152602001606081526020015f151581525090565b5f604051905090565b5f5ffd5b5f5ffd5b5f819050919050565b610c4f81610c3d565b8114610c59575f5ffd5b50565b5f81359050610c6a81610c46565b92915050565b5f73ffffffffffffffffffffffffffffffffffffffff82169050919050565b5f610c9982610c70565b9050919050565b610ca981610c8f565b8114610cb3575f5ffd5b50565b5f81359050610cc481610ca0565b92915050565b5f5ffd5b5f5ffd5b5f601f19601f8301169050919050565b7f4e487b71000000000000000000000000000000000000000000000000000000005f52604160045260245ffd5b610d1882610cd2565b810181811067ffffffffffffffff82111715610d3757610d36610ce2565b5b80604052505050565b5f610d49610c2c565b9050610d558282610d0f565b919050565b5f67ffffffffffffffff821115610d7457610d73610ce2565b5b610d7d82610cd2565b9050602081019050919050565b828183375f83830152505050565b5f610daa610da584610d5a565b610d40565b905082815260208101848484011115610dc657610dc5610cce565b5b610dd1848285610d8a565b509392505050565b5f82601f830112610ded57610dec610cca565b5b8135610dfd848260208601610d98565b91505092915050565b5f5f5f60608486031215610e1d57610e1c610c35565b5b5f610e2a86828701610c5c565b9350506020610e3b86828701610cb6565b925050604084013567ffffffffffffffff811115610e5c57610e5b610c39565b5b610e6886828701610dd9565b9150509250925092565b5f5f5f60608486031215610e8957610e88610c35565b5b5f84013567ffffffffffffffff811115610ea657610ea5610c39565b5b610eb286828701610dd9565b935050602084013567ffffffffffffffff811115610ed357610ed2610c39565b5b610edf86828701610dd9565b925050604084013567ffffffffffffffff811115610f0057610eff610c39565b5b610f0c86828701610dd9565b9150509250925092565b5f60208284031215610f2b57610f2a610c35565b5b5f610f3884828501610cb6565b91505092915050565b5f81519050919050565b5f82825260208201905092915050565b5f819050602082019050919050565b610f7381610c3d565b82525050565b5f610f848383610f6a565b60208301905092915050565b5f602082019050919050565b5f610fa682610f41565b610fb08185610f4b565b9350610fbb83610f5b565b805f5b83811015610feb578151610fd28882610f79565b9750610fdd83610f90565b925050600181019050610fbe565b5085935050505092915050565b5f6020820190508181035f8301526110108184610f9c565b905092915050565b5f5f6040838503121561102e5761102d610c35565b5b5f61103b85828601610cb6565b925050602061104c85828601610c5c565b9150509250929050565b61105f81610c3d565b82525050565b5f6020820190506110785f830184611056565b92915050565b5f6020828403121561109357611092610c35565b5b5f6110a084828501610c5c565b91505092915050565b5f81519050919050565b5f82825260208201905092915050565b8281835e5f83830152505050565b5f6110db826110a9565b6110e581856110b3565b93506110f58185602086016110c3565b6110fe81610cd2565b840191505092915050565b61111281610c8f565b82525050565b5f8115159050919050565b61112c81611118565b82525050565b5f60c0820190506111455f830189611056565b818103602083015261115781886110d1565b9050818103604083015261116b81876110d1565b905061117a6060830186611109565b818103608083015261118c81856110d1565b905061119b60a0830184611123565b979650505050505050565b5f82825260208201905092915050565b5f6111c0826110a9565b6111ca81856111a6565b93506111da8185602086016110c3565b6111e381610cd2565b840191505092915050565b6111f781610c8f565b82525050565b61120681611118565b82525050565b5f60c083015f8301516112215f860182610f6a565b506020830151848203602086015261123982826111b6565b9150506040830151848203604086015261125382826111b6565b915050606083015161126860608601826111ee565b506080830151848203608086015261128082826111b6565b91505060a083015161129560a08601826111fd565b508091505092915050565b5f6020820190508181035f8301526112b8818461120c565b905092915050565b7f4e487b71000000000000000000000000000000000000000000000000000000005f52602260045260245ffd5b5f600282049050600182168061130457607f821691505b602082108103611317576113166112c0565b5b50919050565b5f819050815f5260205f209050919050565b5f6020601f8301049050919050565b5f82821b905092915050565b5f600883026113797fffffffffffffffffffffffffffffffffffffffffffffffffffffffffffffffff8261133e565b611383868361133e565b95508019841693508086168417925050509392505050565b5f819050919050565b5f6113be6113b96113b484610c3d565b61139b565b610c3d565b9050919050565b5f819050919050565b6113d7836113a4565b6113eb6113e3826113c5565b84845461134a565b825550505050565b5f5f905090565b6114026113f3565b61140d8184846113ce565b505050565b5b81811015611430576114255f826113fa565b600181019050611413565b5050565b601f821115611475576114468161131d565b61144f8461132f565b8101602085101561145e578190505b61147261146a8561132f565b830182611412565b50505b505050565b5f82821c905092915050565b5f6114955f198460080261147a565b1980831691505092915050565b5f6114ad8383611486565b9150826002028217905092915050565b6114c6826110a9565b67ffffffffffffffff8111156114df576114de610ce2565b5b6114e982546112ed565b6114f4828285611434565b5f60209050601f831160018114611525575f8415611513578287015190505b61151d85826114a2565b865550611584565b601f1984166115338661131d565b5f5b8281101561155a57848901518255600182019150602085019450602081019050611535565b868310156115775784890151611573601f891682611486565b8355505b6001600288020188555050505b505050505050565b7f4e487b71000000000000000000000000000000000000000000000000000000005f52601160045260245ffd5b5f6115c382610c3d565b91507fffffffffffffffffffffffffffffffffffffffffffffffffffffffffffffffff82036115f5576115f461158c565b5b600182019050919050565b5f6060820190508181035f83015261161881866110d1565b9050818103602083015261162c81856110d1565b9050818103604083015261164081846110d1565b9050949350505050565b7f4e487b71000000000000000000000000000000000000000000000000000000005f52603260045260245ffd5b5f61168182610c3d565b915061168c83610c3d565b92508282039050818111156116a4576116a361158c565b5b92915050565b7f4e487b71000000000000000000000000000000000000000000000000000000005f52603160045260245ffdfea26469706673582212206be08ce058fdb8ad75f50e7a248b90b80d94b55533dd255752665fba686b58e764736f6c634300081d0033",
    "linkReferences": {}
  },
  "methodIdentifiers": {
    "getLandDetails(uint256)": "fe0cb7dc",
    "getOwnerLands(address)": "bf5172d7",
    "landCount()": "d7bce658",
    "lands(uint256)": "e261f1e5",
    "ownerLands(address,uint256)": "d0dea6e2",
    "registerLand(string,string,string)": "b829c12a",
    "transferOwnership(uint256,address,string)": "71625641"
  },
  "id": 0
}